:100000000C9463000C948B000C948B000C942919B5
:100010000C9429190C9429190C948B000C948B00C6
:100020000C948B000C948B000C948B000C948B0024
:100030000C948B000C948B000C948B000C948B0014
:100040000C94DF180C948B000C94AD180C9487184A
:100050000C948B000C948B000C948B000C948B00F4
:100060000C948B000C948B000000000024002700EF
:100070002A0000000008000201000003040700003D
:1000800000000000000000000000230026002900FE
:1000900000000000250028002B00040404040404D0
:1000A0000404020202020202030303030303010227
:1000B00004081020408001020408102001020408F6
:1000C0001020A1192C2411241FBECFEFD8E0DEBFD1
:1000D000CDBF12E0A0E0B1E0ECE3F0E502C0059096
:1000E0000D92AC3BB107D9F725E0ACEBB2E001C013
:1000F0001D92AC31B207E1F710E0C2E6D0E004C0D7
:100100002197FE010E94D527C136D107C9F70E9469
:100110006C1B0C9411280C9400008CBD9DBD08959F
:10012000FC01818D928D0895089520E3FC012083C8
:100130003296862F82958F706F706A3030F4605DD2
:100140006293682F8111F5CF0895695CF9CF0F9301
:100150001F93CF93DF93C091C504E6ECF4E0CD325A
:1001600011F0E5ECF4E08F0120E030E0A901D801C6
:10017000DD918D0180ED8D0F8A3090F4AAE0B0E022
:100180000E9431252D2FDD0F330B440B550B260F0D
:10019000371F481F591F2053310941095109E7CF23
:1001A000A4E6B0E00E943125AB01BC01DF018191E2
:1001B00090ED980F9A30D0F38E3259F511968C91BC
:1001C000119790ED980F9A3020F5082E000C990B9E
:1001D000C0972AE0289F8001299F100D1124012E2D
:1001E000000C220B330B400F511F621F731F12961E
:1001F0008C9190ED980F9A3060F4082E000C990BBA
:10020000C097092E000CAA0BBB0B480F591F6A1F81
:100210007B1FCD3239F470956095509541955F4FB5
:100220006F4F7F4FCB01BA01DF91CF911F910F919B
:1002300008954F925F926F927F928F929F92AF92AA
:10024000BF92CF92DF92EF92FF921F93CF93DF93F3
:10025000C5ECD4E0FE01C12CD12C7601119180EDCA
:10026000810F8A30A8F4AAE0B0E0A70196010E94AD
:100270003125C12E110FDD08EE08FF08C60ED71E6E
:10028000E81EF91E80E3C81AD108E108F108E6CF9C
:10029000C701B60124E630E040E050E00E9444256A
:1002A0009B01AC0160EA76E881E090E00E94B12712
:1002B0004B015C019E01899190ED980F9A30D0F32B
:1002C0008E3221F5E901219680E1482E87E2582EF1
:1002D000612C712CA99180ED8A0F8A30B8F40A2E16
:1002E000000CBB0BD097A30192010E943C25860E07
:1002F000971EA81EB91EC301B2012AE030E040E0FB
:1003000050E00E94442529013A01E4CFC701B6011B
:1003100024E630E040E050E00E94442560E472E4CE
:100320008FE090E00E94B1276B017C01C501B40110
:100330006D5F7F4F8F4F9F4F26E030E040E050E0F1
:100340000E944425C701B601620F731F841F951FC9
:10035000DF91CF911F91FF90EF90DF90CF90BF90F2
:10036000AF909F908F907F906F905F904F90089587
:10037000DC01ED91FC910190F081E02D0994AF92A8
:10038000BF92CF92DF92EF92FF920F931F93CF9382
:10039000DF936C017B018B01040F151FEB015E01E4
:1003A000AE18BF08C017D10759F06991D601ED9179
:1003B000FC910190F081E02DC6010995892B79F718
:1003C000C501DF91CF911F910F91FF90EF90DF90CA
:1003D000CF90BF90AF900895FC01538D448D252F91
:1003E00030E0842F90E0821B930B541710F0CF96CF
:1003F000089501970895FC01918D828D981761F001
:10040000A28DAE0FBF2FB11D5D968C91928D9F5F17
:100410009F73928F90E008958FEF9FEF0895FC01F6
:10042000918D828D981731F0828DE80FF11D858DA9
:1004300090E008958FEF9FEF0895FC01918D228D3C
:10044000892F90E0805C9F4F821B91098F739927C1
:1004500008958CE993E00E941D0221E0892B09F4A4
:1004600020E0822F089580E090E0892B29F00E94FF
:10047000290281110C9400000895FC01A48DA80F9D
:10048000B92FB11DA35ABF4F2C91848D90E00196D6
:100490008F739927848FA689B7892C93A089B189F6
:1004A0008C91837080648C93938D848D981306C097
:1004B0000288F389E02D80818F7D80830895EF92FB
:1004C000FF920F931F93CF93DF93EC0181E0888F0E
:1004D0009B8D8C8D98131AC0E889F989808185FFDE
:1004E00015C09FB7F894EE89FF896083E889F98980
:1004F00080818370806480839FBF81E090E0DF9182
:10050000CF911F910F91FF90EF900895F62E0B8DD4
:1005100010E00F5F1F4F0F731127E02E8C8D8E118F
:100520000CC00FB607FCFACFE889F989808185FFF6
:10053000F5CFCE010E943D02F1CFEB8DEC0FFD2FE8
:10054000F11DE35AFF4FF0829FB7F8940B8FEA89B1
:10055000FB8980818062CFCFCF93DF93EC01888DC0
:100560008823B9F0AA89BB89E889F9898C9185FD2E
:1005700003C0808186FD0DC00FB607FCF7CF8C91BC
:1005800085FFF2CF808185FFEDCFCE010E943D0235
:10059000E9CFDF91CF910895833081F028F4813045
:1005A00099F08230A9F008958730A9F08830C9F019
:1005B0008430B1F4809180008F7D03C080918000F1
:1005C0008F7780938000089584B58F7784BD0895D8
:1005D00084B58F7DFBCF8091B0008F778093B00082
:1005E00008958091B0008F7DF9CF1F93CF93DF9353
:1005F000282F30E0F901EE58FF4F8491F901E255C0
:10060000FF4FD491F901E656FF4FC491CC23A9F0D6
:10061000162F81110E94CC02EC2FF0E0EE0FFF1F8D
:10062000E057FF4FA591B4918FB7F894EC91111159
:1006300008C0D095DE23DC938FBFDF91CF911F914F
:100640000895DE2BF8CFCF93DF9390E0FC01E255C5
:10065000FF4F249186569F4FFC0184918823D1F04F
:1006600090E0880F991FFC01E859FF4FA591B491C4
:10067000FC01E057FF4FC591D49161110EC09FB7A7
:10068000F8948C91E22FE0958E238C932881E223BD
:10069000E8839FBFDF91CF9108958FB7F894EC91D5
:1006A000E22BEC938FBFF6CF3FB7F894809106030F
:1006B00090910703A0910803B091090326B5A89B68
:1006C00005C02F3F19F00196A11DB11D3FBFBA2FE4
:1006D000A92F982F8827BC01CD01620F711D811DA4
:1006E000911D42E0660F771F881F991F4A95D1F729
:1006F00008958F929F92AF92BF92CF92DF92EF9226
:10070000FF924B015C010E9454036B017C010E942B
:1007100054036C197D098E099F09683E7340810559
:100720009105A8F321E0821A9108A108B10888EE8A
:10073000C80E83E0D81EE11CF11C81149104A104B1
:10074000B10429F7FF90EF90DF90CF90BF90AF906A
:100750009F908F9008952FB7F89460910203709145
:10076000030380910403909105032FBF0895209106
:100770000C0330910D032817390771F490910A0387
:1007800080910B03981741F0E0910A03F0E0EF53DA
:10079000FD4F808190E008958FEF9FEF0895EF92D5
:1007A000FF920F931F93CF93DF93DC015C96ED9044
:1007B000FC905D97E114F10479F481E090E01396E8
:1007C0009C938E93129790E080E0DF91CF911F91E0
:1007D0000F91FF90EF9008955196ED91FC915297F3
:1007E00050968C915097982F90950FB75E962C91BC
:1007F0005E97122F127021FD6095F89420811123CD
:1008000019F1282B2083E7012197F1F728E0462FE3
:1008100050E0308160FF1AC0382B3083E701219708
:10082000F1F7BA0175956795215089F7112381F089
:100830008081892380830FBF5C968D919C91019765
:10084000F1F781E090E0C1CF2923DCCF3923E5CF58
:100850009081892BEFCF20910C0330910D03281745
:10086000390771F480910B0320910A0390E0805CBA
:100870009F4F821B910960E470E00E94C127089598
:1008800090E080E0089520910C0330910D0328172B
:100890003907B9F490910A0380910B03981789F0F6
:1008A000E0910A03F0E0EF53FD4F808120910A03AD
:1008B00030E02F5F3F4F2F73332720930A0390E0E0
:1008C00008958FEF9FEF0895FC0120812EBD9B01BD
:1008D0002150310941F051810DB407FEFDCF4EB5D5
:1008E0005EBD4193F5CF61507109860F971F0DB41E
:1008F00007FEFDCF2EB5FC0120830895E091BD02D7
:10090000F091BE0280819091BC02892B8083089572
:10091000E091BD02F091BE0290818091BC02809571
:100920008923808308958EBD00000DB407FEFDCF9E
:100930008EB50895AF92BF92CF92DF92EF92FF9261
:100940000F931F93CF93DF93CDB7DEB728970FB6E2
:10095000F894DEBF0FBECDBF8C017B016A01809190
:100960009A038333E1F45801A40EB51EA016B10614
:1009700009F46FC00E94880480EF0E949304812FC5
:100980000E949304802F0E9493040F5F1F4FF70172
:1009900081917F010E9493040E947E04E7CF5B0156
:1009A000A40EB51E8433C1F40E94880419830A83FF
:1009B0008D2D80688B83CC8264E070E0CE0101963F
:1009C0000E946404AE14BF0409F441C0F701819190
:1009D0007F010E949304F6CF0E9488040F3F110507
:1009E00009F028F419820A8384E08B830CC017FD78
:1009F00017C019820A8333E0169507953A95E1F7F7
:100A0000007E0C600B8386E0C816D104A0F5F701C8
:100A1000DE011496EA15FB0599F081918D93FACFCA
:100A2000C80126E0969587952A95E1F7807E19837F
:100A30000A830115104C10F48461D7CF8C61D5CF97
:100A4000B6016D5F7F4FCE0101960E9464040E9443
:100A50007E04C60128960FB6F894DEBF0FBECDBF48
:100A6000DF91CF911F910F91FF90EF90DF90CF908A
:100A7000BF90AF90089563E070E0CE0101960E94B0
:100A80006404F70181917F010E949304AE14BF04B6
:100A9000C1F7DDCFCF93DF931F92CDB7DEB7898348
:100AA00041E050E0BE016F5F7F4F90E080E00E9428
:100AB0009A040F90DF91CF91089590E020919A03CE
:100AC000233339F40C96982F990F990F990F80E0E2
:100AD00008954896F8CFDA01E091C002F0E0FE2FC9
:100AE000EE27E60FF71F90E0982F8827A901BD0198
:100AF0008E0F9F1F0C949A04CF93DF9300D0CDB735
:100B0000DEB779836A8322E030E0AE014F5F5F4F4A
:100B100060E170E00E946B050F900F90DF91CF9124
:100B20000895CF93DF9300D0CDB7DEB779836A8382
:100B300022E030E0AE014F5F5F4F64E070E00E9462
:100B40006B050F900F90DF91CF910895CF93DF93B6
:100B50001F92CDB7DEB72091C00230E0322F22279E
:100B6000260F371F90E0982F8827498341E050E0F7
:100B7000BE016F5F7F4F820F931F0E949A040F90F8
:100B8000DF91CF910895CF93DF931F92CDB7DEB75A
:100B90006983DC01ED91FC910280F381E02D41E05D
:100BA00050E0BE016F5F7F4F09950F90DF91CF91AD
:100BB0000895FC019485FB018485981303C081E0AE
:100BC000943008F080E00895CF93DF931F92CDB763
:100BD000DEB76983DC01ED91FC910280F381E02DA9
:100BE00041E050E0BE016F5F7F4F09950F90DF91AC
:100BF000CF91089544E050E0BC018FE090E00C9468
:100C00009A040895FF920F931F93CF93DF93EB0104
:100C1000FC01178A168A2A81211109C02B81211112
:100C200006C02C81211103C02D81222301F1411521
:100C30005105E9F08A01FC01F08C80E591E00E9409
:100C40008D00AE014E5F5F4F24E030E06CE070E05D
:100C50008F2D0E946B05B8018F2D0E947C0581E0CD
:100C600090E0DF91CF911F910F91FF90089580E068
:100C7000F7CFFC01848595850895FC0184899589C9
:100C800008952FE931E0FC0131832083FB01408985
:100C9000518962897389FC0142835383648375831C
:100CA0000895DC01ED91FC91048CF58DE02D099403
:100CB00090E080E00895FC01768765870895DC0167
:100CC000ED91FC91068CF78DE02D099591E0892737
:100CD0000895862F089581E08627089521E0FC017C
:100CE0008485843008F020E0822F0895AF92BF926F
:100CF000CF92DF92EF92FF920F931F93CF93DF93E8
:100D000000D000D0CDB7DEB78C016B017A018091A5
:100D10009A038333E9F45B016801C40ED51EC01643
:100D2000D106A9F10E9488048FE00E949304812FCC
:100D30000E949304802F0E9493040F5F1F4F80E056
:100D40000E949304F50181935F010E947E04E7CF26
:100D5000843369F50E94880419830A838F2D8F7765
:100D60008B83EC8264E070E0CE0101960E94640403
:100D7000A70170E060E0C6010E940328E114F104BD
:100D800021F0B701C6010E9464040E947E04C701DD
:100D90000F900F900F900F90DF91CF911F910F91B7
:100DA000FF90EF90DF90CF90BF90AF9008950E949A
:100DB00088040F3F110509F030F419820A831B8261
:100DC00063E070E0D1CF17FD0BC019820A8333E0D6
:100DD000169507953A95E1F7007E08600B83F0CFF2
:100DE000C80126E0969587952A95E1F7807E1983BC
:100DF0000A830115104C18F480618B83E1CF886160
:100E0000FCCFCF93DF931F92CDB7DEB72091C00206
:100E100030E0322F2227260F371F90E0982F8827A7
:100E200041E050E0BE016F5F7F4F820F931F0E9431
:100E3000760689810F90DF91CF910895CF93C82FC7
:100E4000462F61E070E00E94A60561E070E08C2F03
:100E50000E9401078111F9CFCF910895CF93C82F38
:100E600080E591E00E948D0068E070E08C2FCF91CA
:100E70000C941E07CF93C82F80E591E00E948D004F
:100E800060E170E08C2FCF910C941E07CF93DF931D
:100E9000EC01888D843020F40E943A0784E0888F2A
:100EA000DF91CF910895CF93C82F80E591E00E9404
:100EB0008D0063E070E08C2FCF910C940107CF93ED
:100EC000DF93EC018C858430D0F40E945307843189
:100ED00089F0882379F0883169F021E08C3159F468
:100EE000E881F9810084F185E02DCE01099521E0AA
:100EF000892B09F420E0822FDF91CF91089580E0C3
:100F0000FBCFCF92DF92EF92FF92CF93DF93EC0172
:100F10008C85843068F40E942E070E94AB036B011D
:100F20007C018C850E945307811109C084E08C8765
:100F3000DF91CF91FF90EF90DF90CF90089561E027
:100F400070E080E090E00E9479030E94AB03AB0167
:100F5000BC014C195D096E097F098D859E85B0E045
:100F6000A0E0481759076A077B07D8F28C850E94D2
:100F70003A07DCCFCF93FC01C08D80E591E00E9461
:100F80008D0060E270E08C2F0E941E0762E070E02E
:100F90008C2F0E94010784FD16C062E070E08C2F48
:100FA0000E94010783FF0AC048E162E070E08C2FD5
:100FB0000E94A60580E090E0CF91089580E591E041
:100FC0000E948D00E3CF40E162E070E08C2F0E9430
:100FD000A60581E0F0CFCF93DF931F92CDB7DEB7A8
:100FE00041E050E0BE016F5F7F4F90E080E00E94E3
:100FF000760689810F90DF91CF910895CF93DF938B
:10100000C4E1D0E00E94EB07882361F061E070E06A
:1010100080E090E00E9479032197A1F780E0DF91C2
:10102000CF91089581E0FBCFDF92EF92FF920F9373
:101030001F93CF93DF9300D0CDB7DEB760E372E0AC
:1010400080E090E00E947903DFB6F89404EA10E0B3
:1010500038EBE32E30E0F32E8091BF02811125C0E2
:10106000F8018491F7019491E82FF0E0EE0FFF1F53
:10107000E859FF4FA591B4918C91982321F461E038
:101080008AE00E94F50261E08AE00E9423038CB5A9
:1010900080618CBD8CB580648CBD61E08DE00E9468
:1010A000230361E08BE00E9423038091BF028F5FE6
:1010B0008093BF02DFBEF8010491E02FF0E0EE0F55
:1010C000FF1FE057FF4F859194919093BE0280934C
:1010D000BD02F701E490E092BC0261E08AE00E9468
:1010E00023030E947E0480E591E00E948D0084E34A
:1010F00080939A0380E80E944A050E94FE07882395
:1011000009F448C088E00E944A050E94EB07883035
:1011100009F040C080E10E944A050E94EB0780313F
:10112000C9F580E00E944A050E94EB07182F811143
:1011300031C041E050E0BE016F5F7F4F8FE190E032
:101140000E9476068981833029F580E48093C0026D
:1011500042E06EE170E0812F0E94A60542E06FE15F
:1011600070E0812F0E94A6051F5F143089F740E0D0
:101170006EE170E0812F0E94A60540E06FE170E013
:10118000812F0E94A6051F5F183089F781E08093A8
:101190009B036AC087E380939A0380E80E944A0514
:1011A0000E94FE07882329F188E00E944A050E94D8
:1011B000EB078830F1F480E10E944A050E94EB07BA
:1011C000182F8031B1F480E00E944A050E94EB079D
:1011D00081110FC041E050E0BE016F5F7F4F89E396
:1011E00090E00E9476068981843019F41093C00241
:1011F000CDCF83E380939A0380E80E944A050E9442
:10120000FE07882371F180E10E944A050E94EB07E6
:10121000803139F582E10E944A050E94EB07823154
:1012200001F580E00E944A050E94EB07811119C078
:1012300084E08093C00215E51A8341E050E0BE01CE
:101240006E5F7F4F8BE190E00E949A04198341E02A
:1012500050E0BE016F5F7F4F8AE190E00E949A04E8
:1012600095CF10929A0380E00F900F90DF91CF916D
:101270001F910F91FF90EF90DF900895CF92DF9232
:10128000EF92FF92CF93DF93CDB7DEB7C254D1096F
:101290000FB6F894DEBF0FBECDBFFC014281538173
:1012A0006481758123964CAF5DAF6EAF7FAF23979E
:1012B00081E023968FAF23972396CCACDDACEEACC8
:1012C000FFAC2397CBAADCAAEDAAFEAA4DA75EA786
:1012D0006FA778AB88ABCDA4DEA4EFA4F8A8CFA20B
:1012E000D8A6E9A6FAA68EABCBA8DCA8EDA8FEA8E6
:1012F000C9A2DAA2EBA2FCA22FE931E03C8B2B8B36
:101300009FEF9D8B9E8B9F8B188E3E872D878AA784
:10131000CFA0D8A4E9A4FAA4CF86D88AE98AFA8A09
:101320008CA389A19AA1ABA1BCA189879A87AB871D
:10133000BC873A8329834B835C836D837E83809152
:101340009B038823F1F180E591E00E948D0046E047
:1013500050E06FE071E089E090E00E949A04CE01D5
:1013600003960E94FA0544E050E0BE01615F7F4FA2
:1013700081E090E00E949A0444E050E0BE016B5E80
:101380007F4F85E090E00E949A0481E08C878985F8
:101390009A85AB85BC858093590490935A04A09399
:1013A0005B04B0935C04CE5BDF4F0FB6F894DEBFF6
:1013B0000FBECDBFDF91CF91FF90EF90DF90CF9028
:1013C00008950E941408882371F3BDCF1F93CF9313
:1013D000DF931F92CDB7DEB7182F80E591E00E9412
:1013E0008D00812F0E945D0527E0129FF0011124DE
:1013F000E258FC4F22813381377041E050E0BE015A
:101400006F5F7F4F820F931F0E94760689810F9036
:10141000DF91CF911F910895FC01808D843040F4BD
:10142000218D328D232B21F00E94E60990E0089552
:101430008FEF9FEF0895CF93DF93FC012485243035
:1014400028F08FEF9FEFDF91CF910895EC0101908D
:10145000F081E02D0084F185E02D0995892B89F339
:101460008C850E94E60990E0EECFDA01E091C0029F
:10147000F0E0FE2FEE27E60FF71F90E0982F882769
:10148000A901BD018E0F9F1F0C9476068F929F922B
:10149000AF92BF92CF92DF92EF92FF921F93CF93C2
:1014A000DF93CDB7DEB72C970FB6F894DEBF0FBE33
:1014B000CDBF20919A0314E0222339F16B017C0106
:1014C00080E591E00E948D005E0127E0A20EB11C34
:1014D000450110E063E070E0812F0E940107F401F4
:1014E00081934F01882349F11F5F143099F710E071
:1014F000F50181915F018D31D9F08831C9F08A51B0
:101500008230B0F01F5F143099F7812F2C960FB600
:10151000F894DEBF0FBECDBFDF91CF911F91FF903A
:10152000EF90DF90CF90BF90AF909F908F900895F5
:1015300060E170E0812F0E941E07A12EB12C83EE86
:1015400093E00197F1F742E870E060E0812F0E949C
:10155000A6054FEF62E070E0812F0E94A605B6015C
:10156000C114D10491F480910D0190910E01019666
:101570008115F0EC9F0708F45CC090930E018093F6
:101580000D0160910D0170910E01812F0E94910556
:1015900086E0E9E1F1E0DE01119601900D928A9575
:1015A000E1F7F70183818F778C8384818D83858137
:1015B0008E83A7014E5F5F4F24E030E06CE070E067
:1015C000812F0E946B05B601812F0E947C0526E0C9
:1015D00030E0AE014F5F5F4F66E070E0812F0E9408
:1015E0006B0561E070E0812F0E941E0727E02A9DB5
:1015F000C0012B9D900D11249C0122583C4F790174
:10160000F9011182108222E030E0AE01455F5F4FA8
:1016100068E270E0812F0E94350A8B859C859827AF
:1016200089279827F7019383828316821582148273
:101630006CCF80E090ECA1CFCF92DF92EF92FF923F
:101640000F931F93CF93DF9300D000D000D0CDB77E
:10165000DEB78C016B017A01FC01808D843010F4BF
:101660000E943A078FE991E09A838983F60182818B
:101670009381A481B5818B839C83AD83BE83B701A5
:10168000CE0101960E94460AF801808F8430A0F4B2
:10169000F586E486128E118E81E026960FB6F894B8
:1016A000DEBF0FBECDBFDF91CF911F910F91FF9095
:1016B000EF90DF90CF90089580E0EFCFAF92BF9290
:1016C000CF92DF92EF92FF920F931F93CF93DF930E
:1016D00000D000D000D0CDB7DEB7082F6B0180E579
:1016E00091E00E948D009E012F5F3F4F79015901CB
:1016F00010E063E070E0812F0E940107F501819303
:101700005F01882341F11F5F143099F710E0F70162
:1017100081917F018D31D1F08831C1F08A518230C1
:10172000A8F01F5F143099F7812F26960FB6F89412
:10173000DEBF0FBECDBFDF91CF911F910F91FF9004
:10174000EF90DF90CF90BF90AF90089560E170E090
:10175000812F0E941E07E12EF12C83EE93E001976A
:10176000F1F7402F70E060E0812F0E94A6054FEF57
:1017700062E070E0812F0E94A605B601CD2889F4B1
:1017800080910D0190910E0101968115F0EC9F075B
:1017900098F190930E0180930D0160910D0170916D
:1017A0000E01812F0E94910561E070E0812F0E945F
:1017B0001E0727E02E9DC0012F9D900D11249C0136
:1017C00022583C4F7901F9011182108222E030E069
:1017D000AE014B5F5F4F68E270E0812F0E94350AD7
:1017E0008D819E81982789279827F701938382838B
:1017F00016821582148298CF80E090ECCACFCF92E7
:10180000DF92EF92FF921F93CF93DF93EC017B0166
:101810006A018C85843048F40E945307882319F0AC
:101820008C850E942E0784E08C87F701828193814A
:10183000A481B5810097A105B10551F490E080E045
:10184000DF91CF911F91FF90EF90DF90CF9008959F
:101850008F3F9F4FAF4FBF4F89F380919A03811104
:1018600003C084E08C87EACF70E060E081E20E94F0
:101870005E0B182F8C87843008F780E591E00E947A
:101880008D00A7014E5F5F4F24E030E06CE070E018
:10189000812F0E946B05B601812F0E947C0564E0B8
:1018A00070E0812F0E941E070E94AB036B017C0138
:1018B0008C850E945307873109F18C31F9F0882318
:1018C00009F4BCCF0E94AB03AB01BC014C195D090C
:1018D0006E097F098D859E85B0E0A0E0841795078D
:1018E000A607B70738F061E070E080E090E00E9462
:1018F0007903DECF8C850E943A07B3CF81E090E078
:101900009FCF0F931F93CF93DF93EC018B01888DB3
:10191000843010F40E943A0780919A03811107C025
:1019200094E0988FDF91CF911F910F910895B801A6
:1019300082E00E945E0B888F843030F41D870C8714
:101940001A8E198E81E0EECF80E0ECCF7F928F92DD
:101950009F92AF92BF92CF92DF92EF92FF920F933E
:101960001F93CF93DF9300D0CDB7DEB7782E8B01D6
:101970004A01590122E030E0AE014F5F5F4F64E25F
:1019800070E00E94350AE980FA80FE24EF24FE24EC
:10199000E00EF11E9701377040919A03072D10E079
:1019A000433309F042C0085F1F4F102F0027110F6B
:1019B000110F110FC901800F911F4733C9F1A90100
:1019C0004A0D5B1D4130584098F160E078E06B01B2
:1019D000C21AD30AA601B4010E949A04A5014C19A7
:1019E0005D09B4016C0D7D1DC8010E949A04EA0CCA
:1019F000FB1CF982EA8222E030E0AE014F5F5F4FCC
:101A000064E270E0872D0E946B050F900F90DF91CC
:101A1000CF911F910F91FF90EF90DF90CF90BF90EB
:101A2000AF909F908F907F900895005F1F4FBDCF24
:101A3000A501B401DACFEF92FF921F93CF93DF930A
:101A400000D0CDB7DEB7182F22E030E0AE014F5FF7
:101A50005F4F60E270E00E94350AE980FA80FE2460
:101A6000EF24FE2422E030E0AE014F5F5F4F60E2E2
:101A700070E0812F0E94350A89819A8198278927F1
:101A80009827E816F90689F487E0189FF0011124D9
:101A9000E258FC4FF582E482C7010F900F90DF916E
:101AA000CF911F91FF90EF9008957C01DBCF1F93A2
:101AB000CF93DF93182F80E591E00E948D00812F56
:101AC0000E941B0DEC0163E070E0812F0E94010772
:101AD000873121F08C3111F0D0E0C0E0CE01DF91F0
:101AE000CF911F910895CF93DF93EC018C858430C3
:101AF00060F40E945307873111F08C3131F48C85EA
:101B00000E94570D8115984088F3DF91CF91089579
:101B1000FC018485843010F40C94570D90E080E033
:101B200008959F92AF92BF92CF92DF92EF92FF9271
:101B30000F931F93CF93DF938C015B01942EE52EBF
:101B4000FC01C688D788F08C80E591E00E948D006A
:101B50008F2D0E941B0DC92DDE2D8C179D0708F4BB
:101B6000EC019E01A501B6018F2D0E94A60CF80183
:101B7000868997898C0F9D1F978B868BCE01DF916D
:101B8000CF911F910F91FF90EF90DF90CF90BF907A
:101B9000AF909F9008958F929F92AF92BF92CF92F5
:101BA000DF92EF92FF920F931F93CF936C015B0133
:101BB0008A01FC01C485C430F0F57A0141305840F7
:101BC00018F0E12C88E0F82E80E591E00E948D006D
:101BD0008C2F0E941B0D4C0163E070E08C2F0E9443
:101BE0000107873111F08C3149F58E149F0460F3A1
:101BF00080E591E00E948D009701A50170E060E012
:101C00008C2F0E94A60C60E270E08C2F0E941E07B1
:101C100062E070E08C2F0E94010784FD17C063E032
:101C200070E08C2F0E94010781110BC081E090E0D1
:101C3000F6019383828310E000E010C0F12CE12CC8
:101C4000D7CF80E591E00E948D00E2CF40E162E0D5
:101C500070E08C2F0E94A605EF2841F3C801CF91B8
:101C60001F910F91FF90EF90DF90CF90BF90AF90BA
:101C70009F908F900895FF920F931F93CF93DF93C0
:101C800000D0CDB7DEB7F82E22E030E0AE014F5FD6
:101C90005F4F66E270E00E94350A09811A811027C1
:101CA0000127102722E030E0AE014F5F5F4F66E270
:101CB00070E08F2D0E94350A89819A8198278927A3
:101CC00098270817190749F4C8010F900F90DF9162
:101CD000CF911F910F91FF9008958C01E3CF1F9337
:101CE000CF93DF93182F87E0189FE0011124C2588B
:101CF000DC4F88819981009761F480E591E00E9432
:101D00008D00812F0E943B0E2E81821B91099983A9
:101D10008883DF91CF911F910895FC0184858430E1
:101D200010F40C946F0E90E080E008954F925F9253
:101D30007F928F929F92AF92BF92CF92DF92EF925B
:101D4000FF920F931F93CF93DF9300D0CDB7DEB7F1
:101D5000782E6B014A01A82EB12C27E0829FC0018A
:101D60001124FC01E258FC4F7F010081118180E5C4
:101D700091E00E948D000815190554F4872D0E94EA
:101D80003B0EF70126818C01021B11091183008390
:101D90000115110529F563E070E0872D0E94010708
:101DA000843159F0882349F001E010E08C3111F4BE
:101DB00010E000E0119501951109C8010F900F90F6
:101DC000DF91CF911F910F91FF90EF90DF90CF9017
:101DD000BF90AF909F908F907F905F904F900895AD
:101DE000801691060CF4840187E08A9DF0018B9D9A
:101DF000F00D1124E258FC4FE280F380C114D104AD
:101E000051F12701F7E05F22872D0E945D05840DC7
:101E1000951D20919A03273309F453C09801240D8E
:101E2000351D2130384008F44CC020E038E049012D
:101E300084189508A401B6010E9476062601480C74
:101E4000591C6801C818D908872D0E945D05A60194
:101E5000B2010E947606E00EF11E87E08A9DF00135
:101E60008B9DF00D1124E258FC4FF382E282208119
:101E70003181201B310B318320838681800F912F8C
:101E8000911D8A3F910510F4232BF1F487E08A9D80
:101E9000F0018B9DF00D1124E258FC4F1682F9825F
:101EA000EA8222E030E0AE014F5F5F4F68E270E00F
:101EB000872D0E946B0560E470E0872D0E941E074D
:101EC0007CCFA801B601C5CF868377CFCF93DF93B0
:101ED000FC01218D328D2115310529F48FEF9FEF03
:101EE000DF91CF910895EC01808D4217530708F0E0
:101EF000A9010E94960E1816190684F7298D3A8DAD
:101F0000281B390B3A8F298FEBCF0F931F93CF9359
:101F1000DF931F92CDB7DEB7FC01218D328D232BCD
:101F200041F48FEF9FEF0F90DF91CF911F910F91B1
:101F300008958C0141E050E0BE016F5F7F4FFC01CE
:101F4000808D0E94960E181619065CF7F801818D97
:101F5000928D0197928F818F898190E0E4CFCF930A
:101F6000DF931F92CDB7DEB741E050E0BE016F5F57
:101F70007F4FFC0184850E94960E1816190634F4D2
:101F8000898190E00F90DF91CF9108958FEF9FEFBF
:101F9000F9CFFC018485843010F40C94960E90E007
:101FA00080E008950F931F93CF93DF9300D0CDB7B8
:101FB000DEB7FC0124852430E0F48C0180E591E05B
:101FC0000E948D0022E030E0AE014F5F5F4F60E184
:101FD00070E0F80184850E94350A89819A819827EA
:101FE000892798270F900F90DF91CF911F910F9124
:101FF000089590E080E0F6CF0F931F93CF93DF9387
:1020000000D0CDB7DEB7FC0124852430E0F48C018C
:1020100080E591E00E948D0022E030E0AE014F5F4C
:102020005F4F64E070E0F80184850E94350A898181
:102030009A819827892798270F900F90DF91CF9149
:102040001F910F91089590E080E0F6CFDC018FE9B9
:1020500091E08D939D9384E0FB0101900D928A9510
:10206000E1F70895EF92FF920F931F93CF93DF93C1
:1020700000D000D0CDB7DEB78C017B01FB01848599
:102080008430A8F08FE991E0F80191838083128277
:10209000138214821582C8010F900F900F900F9039
:1020A000DF91CF911F910F91FF90EF90089580E500
:1020B00091E00E948D0024E030E0AE014F5F5F4F61
:1020C0006CE070E0F70184850E94350ABE016F5F05
:1020D0007F4FC8010E942610DECF0F931F93CF932E
:1020E000DF93CDB7DEB728970FB6F894DEBF0FBEEB
:1020F000CDBF8C01D80159964D915C915A974115ED
:10210000510551F0ED91FC91048CF58DE02D70E0BE
:1021100060E0C8010995EECFF801808D0E946F0E36
:10212000892BB1F148E050E0BE016F5F7F4FD801CD
:1021300058968C910E94960E18161906F4F4D80140
:10214000509684E0FE01319601900D928A95E1F758
:102150008D8190E0982F88272E81820F911DF801A4
:10216000958B848B8F81282F30E0322F2227888512
:10217000820F932F911D928F818F28960FB6F8941E
:10218000DEBF0FBECDBFDF91CF911F910F9108959C
:1021900090E080E0F2CF4F925F926F927F928F92A9
:1021A0009F92AF92BF92CF92DF92EF92FF920F93E6
:1021B0001F93CF93DF93CDB7DEB763970FB6F89435
:1021C000DEBF0FBECDBF7C016B013A01FB0120E0F9
:1021D00090E080E06AE03191332309F461C040ED82
:1021E000430F4A3008F04DC0689FA001699F500D11
:1021F0001124CA01C097830F911D37FD9A958F3F17
:10220000910549F340F3F70142815381648175815F
:102210008091650490916604A0916704B091680470
:10222000481759076A077B0709F40DC28701085F41
:102230001F4F0E94AB036F7077277C5FC8010E941D
:10224000810C813009F004C28FE991E09A8389837F
:10225000F70182819381A481B5818B839C83AD83B7
:10226000BE8345E350E0BE016F5F7F4FC8010E940F
:102270000206892BA9F5D12CC12CC8010E94460762
:1022800017C03E3209F0BFCF233009F4BCCFD301D1
:10229000A20FB11D12968C932F5F90E080E09BCF30
:1022A000233009F0B0CFF3018583CC24C394D12C23
:1022B000C60163960FB6F894DEBF0FBECDBFDF91A7
:1022C000CF911F910F91FF90EF90DF90CF90BF9033
:1022D000AF909F908F907F906F905F904F900895F8
:1022E0000E94AB03F7017783668342E050E0B701B9
:1022F0006A5F7F4FC8010E94910D81E090E09A8350
:10230000898342E050E0BE016F5F7F4FC8010E94A9
:10231000910D80E091E09A83898342E050E0BE0114
:102320006F5F7F4FC8010E94910D1A82198242E0AF
:1023300050E0BE016F5F7F4FC8010E94910D42E0E7
:1023400050E0BE016F5F7F4FC8010E94910D42E0D7
:1023500050E0BE016F5F7F4FC8010E94910D560192
:10236000F6018081882301F16501F60181912F0139
:10237000882311F08E32B1F446018A189B08181494
:10238000190474F48D8641E050E0BE01635F7F4F15
:10239000C8010E94910DA401B501C8010E94910DD0
:1023A0005201DECF6201E1CF1D8641E050E0BE0167
:1023B000635F7F4FC8010E94910DC12CDD24D3942F
:1023C000DA82C98242E050E0BE016F5F7F4FC801F0
:1023D0000E94910DDA82C98242E050E0BE016F5F37
:1023E0007F4FC8010E94910DC8010E94BA07892B36
:1023F00009F441CFF3E0AF2EB12C230122E0420ECD
:10240000511CD4C0F7014281538164817581808D54
:10241000918DA28DB38D481759076A077B0709F084
:1024200008C1848D958DC59709F003C181A192A142
:102430005DEFC52EDD24DA940C970CF4ADC04CE0B2
:1024400050E0BE016F5F7F4FC8010E94660F8B8115
:102450009C819827892798279A8B898BF701468139
:10246000578129813A814217530709F0E7C097FF46
:10247000E5C08F7092703BEFC32EDD24DA94892B78
:1024800009F08AC06F8078847624672476242AEF46
:10249000C22EDD24DA946114710409F47DC0D12CBC
:1024A000C12C8D819E81982789279827C816D90627
:1024B000F8F441E050E0BE01635F7F4FC8010E9425
:1024C000660F4D85442331F050E070E060E0C801B4
:1024D0000E94660F8D858111ECCF44E050E070E0E2
:1024E00060E0C8010E94660FFFEFCF1ADF0AD9CF64
:1024F000912C812C41E050E0BE016D5E7F4FC80100
:102500000E94660F4B89842F807C09F06CC04423A5
:1025100031F050E070E060E0C8010E94660F8B89E6
:102520008111E8CF42E050E0BE01615F7F4FC801FA
:102530000E94660F42E050E0BE01635F7F4FC8011A
:102540000E94660F44E050E070E060E0C8010E9425
:10255000660F42E050E0BE016F5E7F4FC8010E94EF
:10256000660F8F85988949895A898115914009F0AC
:1025700043C0CD84DE84DC24CD24DC2481E0C81675
:10258000D104D1F54115544009F04AC044E050E06F
:10259000B201C8010E94660F21E0A21AB10809F435
:1025A0006CCEFFEFCF16DF0609F067CE0E94AB03BB
:1025B0003B014C01C8010E946D10181619060CF45D
:1025C00021CF0E94AB0366197709880999096938F8
:1025D00073418105910548F562E370E080E090E089
:1025E0000E947903E7CF41E050E070E060E0C8016D
:1025F0000E94660F1B8A93CF54274527542770E00B
:1026000060E0C8010E94660FFFEF8F1A9F0A6814EE
:10261000790409F06FCF96EFC92EDD24DA94BCCF90
:10262000E7EFCE2EDD24DA94B7CFCC24CA94DC2C8D
:10263000B3CF6EEFC62EDD24DA94AECF4CEFC42EAE
:10264000DD24DA94A9CF8EEFC82EDD24DA9430CEC3
:10265000D12CC12C2DCECF92DF92EF92FF920F930F
:102660001F93CF93DF93CDB7DEB7AF970FB6F89434
:10267000DEBF0FBECDBF7C016A010FE911E01A83F6
:1026800009831C861B8688EE93E0A0E0B0E08D876E
:102690009E87AF87B88B83E291E09A878987188FEE
:1026A0000F8B198E1A8E1B8E1C8E84E089A31BA79C
:1026B0000AA71CA61DA61EA61FA6809159049091CC
:1026C0005A04A0915B04B0915C048EA39FA3A8A7B9
:1026D000B9A78B839C83AD83BE8318861F82AE010E
:1026E000465D5F4FCE0101960E94CB10813091056F
:1026F000B1F4D701ED91FC910488F589E02D1DA37B
:102700000CA38CA59DA5AEA5BFA58EA39FA3A8A72E
:10271000B9A7A601BE016C5D7F4FC7010995AF96B1
:102720000FB6F894DEBF0FBECDBFDF91CF911F91E2
:102730000F91FF90EF90DF90CF900895CF92DF92AE
:10274000EF92FF920F931F93CF93DF93CDB7DEB736
:10275000AF970FB6F894DEBF0FBECDBF8C016B01F3
:102760007A018FE991E09A8389831B821C821D8202
:102770001E821C861B8648EE53E060E070E04D87A9
:102780005E876F87788B23E231E03A872987988FBD
:102790008F8B198E1A8E1B8E1C8E24E029A39BA76B
:1027A0008AA71CA61DA61EA61FA6D8011C968C9142
:1027B000843060F40E945307882321F0F801848557
:1027C0000E942E0784E0D8011C968C9380915904B6
:1027D00090915A04A0915B04B0915C048EA39FA3D6
:1027E000A8A7B9A78B839C83AD83BE8318861F825D
:1027F000AE01465D5F4FB601CE0101960E94CB103F
:102800000097C1F0D801ED91FC910684F785E02D89
:102810008FE991E09DA38CA38CA59DA5AEA5BFA536
:102820008EA39FA3A8A7B9A7A701BE016C5D7F4F88
:10283000C8010995AF960FB6F894DEBF0FBECDBFA5
:10284000DF91CF911F910F91FF90EF90DF90CF908C
:102850000895FB0101900020E9F73197AF01461B75
:10286000570BDC01ED91FC910280F381E02D09947E
:102870008F929F92AF92BF92EF92FF920F931F930E
:10288000CF93DF93CDB7DEB7A1970FB6F894DEBF35
:102890000FBECDBF7C01FA01CB0119A2223008F492
:1028A0002AE08E010F5D1F4F822E912CB12CA12C9E
:1028B000BF01A50194010E944425F901CA016A30B3
:1028C0000CF5605DD8016E938D01232B242B252BF5
:1028D00079F790E080E0109721F0BD01C7010E94D8
:1028E0002914A1960FB6F894DEBF0FBECDBFDF91BD
:1028F000CF911F910F91FF90EF90BF90AF909F905D
:102900008F900895695CDECF8F929F92AF92BF92B5
:10291000CF92DF92EF92FF920F931F93CF93DF93AB
:102920007C018B016C0182E0C80ED11C4701E5E0FF
:102930008E0E911CD0E0C0E0F60141916F0150E095
:1029400070E060E02AE0C8010E9438145C016EE289
:10295000C8010E94B8018A0D9B1DC80FD91FC81459
:10296000D90451F7F701458150E070E060E02AE0BA
:10297000C8010E9438148C0F9D1FDF91CF911F91C9
:102980000F91FF90EF90DF90CF90BF90AF909F900E
:102990008F9008952F923F924F925F926F927F9205
:1029A0008F929F92AF92BF92CF92DF92EF92FF925F
:1029B0001F93CF93DF93EC016A017B01722EAB0171
:1029C0009601CB01B6010E94AC2761EA71E081114A
:1029D00026C046015701E894B7F82FEF3FEF4FE7C5
:1029E0005FE7C501B4010E94AC2781110CC02FEF35
:1029F0003FEF4FE75FE7C501B4010E94E22565EABA
:102A000071E0181664F02FEF3FEF4FE75FE4C70166
:102A1000B6010E943A271816B4F469EA71E0CE01B3
:102A2000DF91CF911F91FF90EF90DF90CF90BF90FB
:102A3000AF909F908F907F906F905F904F903F905E
:102A40002F900C9429142FEF3FEF4FE75FECC70155
:102A5000B6010E94E22587FDE0CF20E030E0A90129
:102A6000C701B6010E94E225312C212C87FF09C045
:102A70006DE2CE010E94B8011C01F7FAF094F7F85C
:102A8000F09410E060E070E080E09FE3711641F0A8
:102A900020E030E040E251E40E94E7251F5FF6CFDE
:102AA000A70196010E9476252B013C010E94592620
:102AB0004B015C012AE0BC01A401CE010E94381444
:102AC0007C01E20CF31C1123C1F1C501B4010E9489
:102AD00088269B01AC01C301B2010E9475254B0100
:102AE0005C016EE2CE010E94B801E80EF91E1150A1
:102AF00020F120E030E040E251E4C501B4010E9441
:102B00003F272B013C010E9459264B01B12CA12CDF
:102B10002AE0B501A401CE010E943814E80EF91E86
:102B2000C501B4010E9488269B01AC01C301B2011A
:102B30000E9475254B015C01DACFC701DF91CF916F
:102B40001F91FF90EF90DF90CF90BF90AF909F903C
:102B50008F907F906F905F904F903F902F9008954F
:102B600065E372E00C9429140F931F93CF93DF93C6
:102B7000EC010E94CA148C01CE010E94B015800F96
:102B8000911FDF91CF911F910F9108950F931F9384
:102B9000CF93DF93EC010E9429148C01CE010E9497
:102BA000B015800F911FDF91CF911F910F91089564
:102BB0000C9429143F924F925F926F927F928F9262
:102BC0009F92AF92BF92CF92DF92EF92FF920F93BC
:102BD0001F93CF93DF93CDB7DEB7EA970FB6F89484
:102BE000DEBF0FBECDBF7C012A013B0169010E94FF
:102BF000AB034B015C0187010D5B1F4FC8010E94B5
:102C00006D10181619069CF00E94AB03681979091B
:102C10008A099B09461657066806790608F466C1B4
:102C200062E370E080E090E00E947903E7CF42E247
:102C300050E0BE016F5F7F4FC8010E94660F89811F
:102C40008230D1F0312C832DEA960FB6F894DEBF96
:102C50000FBECDBFDF91CF911F910F91FF90EF90ED
:102C6000DF90CF90BF90AF909F908F907F906F90AC
:102C70005F904F903F900895F8018489958983343F
:102C8000910501F76D817E818F8198850E94DB27F8
:102C90004B015C01F60180829182A282B38246E000
:102CA00050E0B701685F7F4FCE014D960E94F62736
:102CB000892B41F6F70180819181A281B381881629
:102CC0009906AA06BB0608F4BDCF84819581A6812A
:102CD000B78188159905AA05BB0508F4B3CF898982
:102CE0009A89AB89BC8986879787A08BB18B4EEC7C
:102CF00050E070E060E0C8010E94660F312CC7010F
:102D0000829698AB8FA7F701B696FAABE9AB089617
:102D10009CAB8BAB67019AE1C90ED11CBD96FEAB93
:102D2000EDABC701429698AF8FABFD97FAAFE9AF15
:102D30004701FEE18F0E911CF801818D928D1816CE
:102D400019060CF080CFC8010E94850F83339105CE
:102D500009F4B2C014F58130910509F464C044F45B
:102D6000892B51F3C8010E94850FAC01552775C00E
:102D70008330910509F462C00697A1F7C8010E944B
:102D8000850FB82E44E050E0B401C8010E94660FE0
:102D9000EB2DE450FF0BAF0160C08A33910509F4BD
:102DA0005FC084F585339105B1F1C697D9F6C801A6
:102DB0000E94850F5C01B601CE0189960E94261003
:102DC0008BA59CA5ADA5BEA5892B8A2B8B2BB1F01D
:102DD000EDA9FEA94080518062807380B601CE01CA
:102DE00083960E9426108DA19EA1AFA1B8A5A50132
:102DF000481659066A067B0609F0B8CF44E050E051
:102E0000B60118C08B33910509F440C08F3F91057E
:102E100009F492CFA7CFC8010E94850FC8010E9474
:102E2000850F382E89CFC8010E94850F44E050E0FD
:102E30006FA978ADC8010E94660F7ECFC8010E94BD
:102E4000850FB82E44E050E069AD7AADC8010E940C
:102E5000660F8B2D8450990BAC0170E060E0EACFD7
:102E6000C8010E94850F44E050E069A97AA9C80111
:102E70000E94660FF70166A177A180A591A50E9427
:102E8000DB2766A377A380A791A756CFC8010E942E
:102E9000850F44E050E06BA97CA9C8010E94660F31
:102EA000F70162A573A584A595A50E94DB2762A7FB
:102EB00073A784A795A740CFC8010E94850F44E05F
:102EC00050E06FA578A9C8010E94660FF70162A1C2
:102ED00073A184A195A10E94DB2762A373A384A39D
:102EE00095A366A777A780AB91AB26CF33243A94FE
:102EF000AACE7F928F929F92AF92BF92CF92DF9293
:102F0000EF92FF920F931F93CF93DF93CDB7DEB76E
:102F1000A6970FB6F894DEBF0FBECDBF8C01762EFC
:102F2000942E852E20E2A22ECE0101967C01DC019A
:102F3000EA2D1D92EA95E9F76801F3E4CF0ED11C62
:102F40008FE991E09AA389A38FEF8BA38CA38DA324
:102F50008EA343E450E0BE016F5D7F4FC6010E9427
:102F60000206019609F4BFC081E089838A8386E066
:102F7000B82EBB821C82D80114966D917D918D91E3
:102F80009C9117970E94DB276D837E838F839887A0
:102F900089869A8680E890E09C878B874CE150E098
:102FA000B701C6010E94910DFE0137968AE1DF014B
:102FB0001D928A95E9F74801B8E08B0E911CF40147
:102FC000D70101900D92BA94E1F740E150E0B701CA
:102FD000C6010E94910DF7011192AA94E9F796E0BB
:102FE000A92EB12C40E250E0B701C6010E94910D1C
:102FF000F1E0AF1AB108B1F783E6898392E89A83CA
:1030000093E59B838C8385E38D8381E08E837F8230
:103010009DE3988797E099878A8786E0F401DE012F
:103020001B9601900D928A95E1F78CE0898B8A8B33
:103030006DEA71E0CE0143960E940A28D8011B96E2
:103040006C91CE0149960E949500F8016485CE01ED
:103050004B960E949500D8011D966C91CE014D961D
:103060000E9495004EE150E0B701C6010E94910D0B
:10307000B3E07B121EC082E3898384E08A83F80177
:1030800096859B8397859C8390899D8391899E8358
:1030900096E39F838887828D8987838D8A87848D35
:1030A0008B87858D8C874CE050E0B701C6010E946C
:1030B000910D87E3898386E08A8391E09B8393E087
:1030C0009C838D838FE08E838AE38F838BE3888755
:1030D0008FEF898749E050E0B701C6010E94910D4A
:1030E000C6010E94BA07A6960FB6F894DEBF0FBEBF
:1030F000CDBFDF91CF911F910F91FF90EF90DF90A7
:10310000CF90BF90AF909F908F907F9008951F9227
:103110000F920FB60F9211242F933F934F935F930B
:103120006F937F938F939F93AF93BF93EF93FF938F
:103130008CE993E00E943D02FF91EF91BF91AF9126
:103140009F918F917F916F915F914F913F912F91BF
:103150000F900FBE0F901F9018951F920F920FB6F1
:103160000F9211242F938F939F93EF93FF93E091EE
:10317000AC03F091AD038081E091B203F091B30311
:1031800082FD1BC090818091B5038F5F8F7320916A
:10319000B603821741F0E091B503F0E0E456FC4F2E
:1031A000958F8093B503FF91EF919F918F912F9110
:1031B0000F900FBE0F901F9018958081F4CF1F9233
:1031C0000F920FB60F9211242F933F938F939F93DB
:1031D000AF93BF938091020390910303A0910403E6
:1031E000B09105033091010323E0230F2D3758F5EB
:1031F0000196A11DB11D20930103809302039093BA
:103200000303A0930403B0930503809106039091F8
:103210000703A0910803B09109030196A11DB11DF8
:103220008093060390930703A0930803B0930903C8
:10323000BF91AF919F918F913F912F910F900FBEB2
:103240000F901F90189526E8230F0296A11DB11D1F
:10325000D2CF1F920F920FB60F9211242F933F934C
:103260004F935F936F937F938F939F93AF93BF938E
:10327000EF93FF93E0910C03F0910D03309749F029
:10328000A685B7858585968D91FF14C09C9189236D
:10329000A1F4FF91EF91BF91AF919F918F917F9199
:1032A0006F915F914F913F912F910F900FBE0F90B3
:1032B0001F9018959C91892361F7A389B4899C91EB
:1032C0008589809589238C93868997890197F1F761
:1032D000608D718DA685B785558538E020E0CB01DE
:1032E0000197F1F7822F90E095958795282F4C91C3
:1032F000452309F02068315091F7868D81FD209596
:1033000080910B0390E001968F73992730910A0307
:10331000381799F0A0910B03B0E0AF53BD4F2C9339
:1033200080930B03828D938D0197F1F7A389B48964
:103330008C919589892B8C93ACCF868D8160868FFB
:10334000F1CF10929F0310929E0348EE53E060E08D
:1033500070E04093A0035093A1036093A203709385
:10336000A3038DE491E090939D0380939C0385ECEF
:1033700090E09093A9038093A80384EC90E090934D
:10338000AB038093AA0380EC90E09093AD0380930D
:10339000AC0381EC90E09093AF038093AE0382EC9A
:1033A00090E09093B1038093B00386EC90E090930B
:1033B000B3038093B2031092B5031092B603109238
:1033C000B7031092B8038FE991E090933A04809389
:1033D000390410923B0410923C0410923D04109268
:1033E0003E049093400480933F0410924104109255
:1033F0004204109243041092440490934604809334
:103400004504109247041092480410924904109207
:103410004A0490934C0480934B0410924D041092F4
:103420004E0410924F0410925004909352048093D3
:1034300051041092530410925404109255041092A7
:10344000560490935E0480935D0410925F04109282
:103450006004109261041092620490935804809367
:1034600057041092590410925A0410925B0410925F
:103470005C0490936404809363041092650410923A
:103480006604109267041092680490936A04809313
:10349000690410926B0410926C0410926D041092E7
:1034A0006E049093170580931605109218051092DC
:1034B000190510921A0510921B059093110580931F
:1034C000100580EC8093120588EA80931305109212
:1034D000140581EB809315051092040510920305E5
:1034E0004093050550930605609307057093080502
:1034F00081E791E0909302058093010584E0809339
:103500000D0588EE93E090930F0580930E051092C1
:10351000E5041092E4044093E6045093E7046093BA
:10352000E8047093E9048FE591E09093E3048093BD
:10353000E2041092F9041092F8041092FB04109225
:10354000FA041092FD041092FC041092FF041092F1
:10355000FE04609100056E7F6D7F609300056695A7
:10356000617081E0682788E00E94F50261E088E0F0
:103570000E942303E6EBF0E0E491E093F204E2EA38
:10358000F0E0E491F0E0EE0FFF1FE057FF4F859170
:1035900094919093F4048093F30460E087E00E9498
:1035A00023038091000581FD04C061E087E00E9453
:1035B000F50287E08093EE04E5EBF0E0E491E09320
:1035C000EF04E1EAF0E0E491F0E0EE0FFF1FEA57CC
:1035D000FF4F859194919093F1048093F0044FEF05
:1035E0005FEFBA0140936F045093700460937104CD
:1035F00070937204109277041092780410927904F8
:1036000010927A048FEF99ECAAE9BBE380937F04D0
:1036100090938004A0938104B093820480938704E4
:1036200090938804A0938904B0938A0480938F04B4
:1036300090939004A0939104B09392048093970484
:1036400090939804A0939904B0939A0480939F0454
:103650009093A004A093A104B093A2044093A70464
:103660005093A8046093A9047093AA048FEF90E08C
:103670009093B0048093AF044093B3045093B40488
:103680006093B5047093B6044093BB045093BC049C
:103690006093BD047093BE041092C3041092C404DE
:1036A00082E08093D4041092D5041092D604109234
:1036B000D7041092D8041092D9041092DA04109210
:1036C000DB041092DD041092DC041092DF041092EF
:1036D000DE041092C5040895CF93DF9300D000D08C
:1036E00000D0CDB7DEB7789484B5826084BD84B550
:1036F000816084BD85B5826085BD85B5816085BDED
:1037000080916E00816080936E00109281008091A4
:10371000810082608093810080918100816080932C
:103720008100809180008160809380008091B10051
:1037300084608093B1008091B00081608093B0007C
:1037400080917A00846080937A0080917A00826010
:1037500080937A0080917A00816080937A008091D2
:103760007A00806880937A001092C10060E083E064
:103770000E942303E091AC03F091AD0382E08083CB
:10378000E091A803F091A9031082E091AA03F091BF
:10379000AB038FEC80831092B403E091B003F091FF
:1037A000B10386E08083E091AE03F091AF038081A6
:1037B00080618083E091AE03F091AF0380818860E7
:1037C0008083E091AE03F091AF03808180688083B5
:1037D000E091AE03F091AF0380818F7D80831092E2
:1037E000FD041092FC041092FB041092FA04109253
:1037F000F9041092F8048DE991E09093FF0480930E
:10380000FE049091EE04963108F047C02DEB30E0B5
:103810003093F9042093F8042BE931E03093FB0452
:103820002093FA042CE231E03093FD042093FC0451
:103830002091680084E0983048F031E09E3008F430
:1038400030E081E001C0880F3A95EAF7822B80933F
:1038500068002DE630E0983050F02BE630E09E30E6
:1038600030F02CE630E0963110F030E020E030937C
:10387000F6042093F504292F30E0983008F0DFC3D8
:1038800081E001C0880F9A95EAF78093F704809150
:10389000FE049091FF040197F1F78091FC04909150
:1038A000FD04892B49F1E0910C03F0910D0324E014
:1038B000E23EF20709F1309739F0A389B4899C916F
:1038C0008589809589238C93809100058E7F8093D4
:1038D000000510920B0310920A0382EE94E090937D
:1038E0000D0380930C03E091F504F091F6048081C0
:1038F0009091F704892B808380916E0381112AC0F7
:10390000109256031092550388EE93E0A0E0B0E0C9
:103910008093570390935803A0935903B0935A038D
:1039200083E291E090935403809353038FE991E0F5
:103930009093620380936103109263031092640377
:10394000109265031092660384E080936B0381E01C
:1039500080936E0380E193E090930F0380930E03B6
:1039600080919B03882309F477C380E591E00E944E
:103970008D0046E050E06FE071E089E090E00E9449
:103980009A048FE991E09A8389831B821C821D82AD
:103990001E82CE0103960E94FA0510923203109205
:1039A00033031092340310923503109236031092B1
:1039B0003703109238031092390310923A03109291
:1039C0003B0310923C0310923D0380E69AEEA0E088
:1039D000B0E08093460390934703A0934803B093CD
:1039E000490380EA9FE0A0E0B0E080934A0390930F
:1039F0004B03A0934C03B0934D03EEE1F3E084E15D
:103A0000DF011D928A95E9F786E0EFE0F1E0A8E199
:103A1000B3E001900D928A95E1F7109252030E9453
:103A200094242FEC37E040E050E00E941225DC01A6
:103A3000CB010196A11DB11D809314039093150332
:103A4000A0931603B0931703809310039093110370
:103A5000A0931203B093130383E593E00E944607FB
:103A600064E470E083E593E00E94810C882309F40C
:103A7000F7C20E94AB036B017C01A8EE4A2EA3E0C3
:103A80005A2E612C712CB3E09B2E02E0B12CA12C9C
:103A900080915203833009F440C08111FCC28091AF
:103AA000140390911503A0911603B091170301968A
:103AB000A11DB11D8093140390931503A0931603C9
:103AC000B09317030E94AB036C197D098E099F09FF
:103AD000A30192010E944425A90161E080E193E0E5
:103AE0000E94791781E08093520391E0A916B104F6
:103AF00079F20E94AB036C197D098E099F09209110
:103B000046033091470340914803509149032617DB
:103B100037074807590708F0B9CF83E593E00E94BB
:103B200046078091140390911503A0911603B0915C
:103B300017030196A11DB11D8093140390931503E3
:103B4000A0931603B09317030E94AB0360934E0338
:103B500070934F038093500390935103AA94AB2822
:103B600009F07EC280E591E00E948D0000910E0375
:103B700010910F03B801625F7F4FCE0101960E9442
:103B80002610CE0103960E94FA05B8016A5E7F4FA7
:103B9000CE0101960E94261044E050E0BE016D5F08
:103BA0007F4F81E090E00E949A04B8016E5E7F4FE3
:103BB000CE0101960E94261044E050E0BE016D5FE8
:103BC0007F4F85E090E00E949A04B801625E7F4FCB
:103BD000CE0101960E9426108B819C81AD81BE8111
:103BE0008093590490935A04A0935B04B0935C04AF
:103BF0000E9454037F7380910D0190910E016827FC
:103C0000792770930E0160930D0168EE73E080E0F8
:103C100090E00E94790332E0932E01E091EBA92E0F
:103C200090E0B92E2DE9622E20E0722EE5E7F0E05B
:103C30008491F501F490F301E490EE2009F42DC392
:103C400081110E94CC02EE2DF0E0EE0FFF1FEA572B
:103C5000FF4FA591B4918C91F82291E080E009F496
:103C600090E0E92EF82E64E670E080E090E00E949B
:103C70007903EA94EF2809F0D5C10E94AB031B0138
:103C80002C01E12C0E94AB03621973098409950988
:103C9000683E73408105910508F4DEC3EE2009F407
:103CA000C1C1C0907F04D0908004E0908104F09066
:103CB00082042090870430908804409089045090BA
:103CC0008A048091BB049091BC04A091BD04B09182
:103CD000BE048F3F9F4FAF4FBF4F11F00E94AB0309
:103CE00060E070E08AE794E4FFEFCF16F9ECDF06BE
:103CF000FAE9EF06FBE3FF0651F0C701B6010E94A7
:103D00008A2620E034E244E759E40E94E7256093E4
:103D10007A0370937B0380937C0390937D0360E030
:103D200070E08AE794E42FEFC21629ECD2062AE964
:103D3000E2062BE3F20651F0C201B1010E948A268D
:103D400020E034E244E759E40E94E72560937603DB
:103D500070937703809378039093790368EE71E012
:103D600082EE94E00E94D8156CE271E080E090E071
:103D70000E94790363EF71E082EE94E00E94D8150F
:103D800068EC70E080E090E00E9479036FE072E000
:103D900082EE94E00E94C61568EC70E080E090E04E
:103DA0000E94790369E172E082EE94E00E94C615F8
:103DB0006CE271E080E090E00E94790368E372E0D9
:103DC00082EE94E00E94D815C0907A03D0907B03D5
:103DD000E0907C03F0907D0320E030E04AE754E47B
:103DE000C701B6010E94E225811103C0C12CD12C6C
:103DF000760126E030E0B701A60182EE94E00E9451
:103E0000B41564E472E082EE94E00E94D815C0908C
:103E10007603D0907703E0907803F090790320E068
:103E200030E04AE754E4C701B6010E94E22581115F
:103E300003C0C12CD12C760126E030E0B701A601E9
:103E400082EE94E00E94B41540917A0350917B0376
:103E500060917C0370917D0326E030E082EE94E077
:103E60000E94B415409176035091770360917803D6
:103E70007091790326E030E082EE94E00E94B41560
:103E800068EC70E080E090E00E9479036AE182EEE5
:103E900094E00E94B80182EE94E00E94B01568ECB4
:103EA00070E080E090E00E94790382EE94E00E944E
:103EB000B01540E550E060E071E081E095E00E94DF
:103EC0009E13892B09F4AEC063E572E08CE993E0A0
:103ED0000E94C6156DE572E08CE993E00E94D8154A
:103EE0006DE572E081E095E00E94D8156FE072E028
:103EF0008CE993E00E94C6156FE072E081E095E0E6
:103F00000E94D81569E772E08CE993E00E94D81509
:103F100069E772E081E095E00E94D8152AE040E070
:103F20005AE161E778E18CE993E00E9438148CE96A
:103F300093E00E94B0152AE040E05AE161E778E1A1
:103F400081E095E00E94381462E872E08CE993E029
:103F50000E94D81562E872E081E095E00E94D815D1
:103F600040917A0350917B0360917C0370917D03B3
:103F700026E030E08CE993E00E94B41540917A038A
:103F800050917B0360917C0370917D0326E081E07A
:103F900095E00E94CA1468E872E081E095E00E9412
:103FA000D81568E872E08CE993E00E94C61540914C
:103FB000760350917703609178037091790322E042
:103FC00081E095E00E94CA144091760350917703F6
:103FD000609178037091790322E030E08CE993E0FE
:103FE0000E94B41561E572E081E095E00E94D81569
:103FF0006EE872E081E095E00E94D81581E095E0DE
:104000000E94B01567E972E081E095E00E94C61554
:104010006AEA72E081E095E00E94C61581E095E0D1
:104020000E94B01580E090E0892B09F4FFCD0E943A
:104030002902882309F4F2CD0E940000EFCD9E30C2
:1040400040F42850310981E001C0880F2A95EAF731
:104050001CCC2E503109F7CF0E941408811185CC59
:1040600064EB71E08CE993E00E94C6158FE991E062
:104070009A8389838091120590911305A09114056C
:10408000B09115058B839C83AD83BE83CE010196D1
:104090000E943E09BACD843031F58091140390918D
:1040A0001503A0911603B09117030196A11DB11D30
:1040B0008093140390931503A0931603B0931703F2
:1040C0000E94AB036C197D098E099F09A30192011F
:1040D0000E944425A90163E080E193E00E947917E2
:1040E0000093520302CD813091F540914A035091E3
:1040F0004B0360914C0370914D039E012F5F3F4F26
:1041000080E193E00E94DA15182F823009F0C1C0D7
:1041100089819A81AB81BC818093140390931503AC
:10412000A0931603B09317030E94AB036C197D098B
:104130008E099F09A30192010E944425A90163E011
:1041400080E193E00E94791710935203CECC823025
:1041500009F0CBCC40914A0350914B0360914C0342
:1041600070914D039E012F5F3F4F80E193E00E94CD
:10417000DA15182F853009F087C09092520380918C
:10418000320390913303A0913403B0913503892B0E
:104190008A2B8B2B61F484E893E0A0E0B0E080935D
:1041A000320390933303A0933403B093350380918B
:1041B000360390913703A0913803B0913903892BCE
:1041C0008A2B8B2BA1F48091320390913303A09121
:1041D0003403B0913503B695A7959795879580934D
:1041E000360390933703A0933803B093390380913B
:1041F0003A0390913B03A0913C03B0913D03892B7E
:104200008A2B8B2BE9F48091320390913303A09198
:104210003403B0913503AC01BD01E3E076956795B9
:1042200057954795EA95D1F7841B950BA60BB70BCD
:1042300080933A0390933B03A0933C03B0933D03D8
:104240008091360390913703A0913803B0913903E0
:1042500080933E0390933F03A0934003B0934103A8
:1042600080913A0390913B03A0913C03B0913D03B0
:104270008093420390934303A0934403B093450378
:10428000AA24A394B12C31CC863019F41092520395
:104290002CCC1F3F09F029CCF9CFF12CE12CE3CC39
:1042A0001A3209F405C11C3209F0BBC28091C30463
:1042B00081278093C304FCC09091D504F0E0EB53B8
:1042C000FB4F1082D090C404DD2009F46AC1209114
:1042D000C504822F022E000C990B3FEB320F3630B3
:1042E00008F0EBC0C7978295807F9091C604292F74
:1042F000092E000C330B4FEB490F463008F0E5C098
:1043000027533109820F9091C304891340C1D09083
:10431000D704DD2009F4CFC08091DC049091DD0446
:1043200001969093DD048093DC048091B704909112
:10433000B804A091B904B091BA048093B3049093E7
:10434000B404A093B504B093B6048091BF049091D7
:10435000C004A091C104B091C2048093BB049093A7
:10436000BC04A093BD04B093BE048091D404882300
:1043700009F4B4C0813009F060C080917304909159
:104380007404A0917504B091760480936F049093A7
:104390007004A0937104B093720480917B04909197
:1043A0007C04A0917D04B0917E0480937704909367
:1043B0007804A0937904B0937A0480918304909157
:1043C0008404A0918504B091860480937F04909327
:1043D0008004A0938104B093820480918B04909117
:1043E0008C04A0918D04B0918E04809387049093E7
:1043F0008804A0938904B0938A0480919B049091CF
:104400009C04A0919D04B0919E0480939704909386
:104410009804A0939904B0939A048091A304909176
:10442000A404A091A504B091A60480939F04909346
:10443000A004A093A104B093A2048091D5048F5F3F
:104440008093D5041092D60481E01A3209F080E0FE
:104450008093C404D110ED2C8CE993E00E941D02DE
:10446000892B09F40FCC8CE993E00E94FB01182FF3
:104470008091D8049091D904A091DA04B091DB0422
:104480000196A11DB11D8093D8049093D904A093E7
:10449000DA04B093DB04143209F4B6C1E091D60417
:1044A00015320CF0FDCE1A3019F01D3009F0B9C1EB
:1044B000EF3008F401CFD12CC0CF2156263018F4AC
:1044C0008755910910CFC0970ECF9156963018F4AA
:1044D0002755310917CF2053310914CF8091930408
:1044E00090919404A0919504B091960480938F04C8
:1044F00090939004A0939104B093920480917304DC
:1045000090917404A0917504B091760480936F0427
:1045100090937004A0937104B0937204809183040B
:1045200090918404A0918504B091860480937F04C7
:1045300090938004A0938104B093820480918B04B3
:1045400090918C04A0918D04B0918E048093870487
:1045500090938804A0938904B0938A048091B10455
:104560009091B2049093B0048093AF048091AB0417
:104570009091AC04A091AD04B091AE048093A704D7
:104580009093A804A093A904B093AA0456CF809155
:10459000DE049091DF0401969093DF048093DE04A3
:1045A0008ACF91111CC0A5ECB4E04CED51E09D0107
:1045B000F90181919F01882309F448C1FA01919181
:1045C000AF018917A9F3E2EEF1E08D91882309F498
:1045D00040C191918917C9F39092D4042ECFE091F4
:1045E000D404E23009F467CF8091C504882309F42C
:1045F00062CF20E2E29FF0011124E92B3197E932EA
:10460000F10508F01ACFE95FFC4D0C94D5274D2336
:1046100068237D239823A323DD23E423EE23F923BA
:104620001D221D221D221D221D221D221D221D2292
:104630001D221D221D221D221D221D221D221D2282
:104640001D221D221D221D221D221D221D224D2341
:10465000622368237D239823A323BE23C923302309
:10466000E5ECF4E020E030E0A901C19080ED8C0D94
:104670008A3008F099C0AAE0B0E00E9431252C2DC4
:10468000CC0C330B440B550B260F371F481F591FFB
:104690002053310941095109E8CF0E94A7006093D6
:1046A00073047093740480937504909376040E944D
:1046B000AB036093B7047093B8048093B9049093EC
:1046C000BA04BBCE91E0813409F47BC090E079C09C
:1046D0000E9419016093830470938404809385047D
:1046E000909386040E94AB036093BF047093C00450
:1046F0008093C1049093C204A0CE833509F0DBCE31
:104700008091830490918404A0918504B0918604E3
:10471000B095A095909581959F4FAF4FBF4F8093D7
:10472000830490938404A0938504B093860485CE7B
:104730000E94190160938B0470938C0480938D0404
:1047400090938E047ACE873509F0B5CE80918B0494
:1047500090918C04A0918D04B0918E04B095A09599
:10476000909581959F4FAF4FBF4F80938B0490934F
:104770008C04A0938D04B0938E045FCE0E94A7009A
:1047800060939B0470939C0480939D0490939E047B
:1047900054CE0E94A7006093A3047093A404809356
:1047A000A5049093A60449CE20937B0430937C0407
:1047B00040937D0450937E0440CE91E081330CF40D
:1047C00085CF9093D70439CE85EC94E00E94EC24F9
:1047D00099279093B2048093B1042FCE0E94A70032
:1047E0006093AB047093AC048093AD049093AE04DB
:1047F00024CE0E94A7006093930470939404809346
:1048000095049093960419CE1092D6041092D50474
:104810001092C3049092D4041092C4041092D7044E
:104820001BCEEE3040F481E08E0F8093D604F0E092
:10483000EB53FB4F10838091C40481110DCE809106
:10484000C304F82EF126F092C30406CE0093D404DC
:10485000F4CD1092D404F1CD8FE591E09093E30470
:104860008093E20480910C0390910D03825E94404A
:1048700071F4E091F504F091F60490818091F704D1
:1048800080958923808310920D0310920C03089564
:104890008F929F92AF92BF92CF92DF92EF92FF9250
:1048A000CF93DF93EC01688179818A819B816115C7
:1048B00071058105910521F464E279ED8BE597E0BE
:1048C0002DE133EF41E050E00E94122549015A01E9
:1048D0009B01AC01A7EAB1E40E9431256B017C0188
:1048E000ACEEB4EFA50194010E943F25C60ED71E81
:1048F000E81EF91EF7FE06C081E0C81AD108E108DB
:1049000080E8F80AC882D982EA82FB82C701B60130
:104910009F77DF91CF91FF90EF90DF90CF90BF9086
:10492000AF909F908F9008958F929F92AF92BF9279
:10493000CF92DF92EF92FF92609115017091160174
:1049400080911701909118016115710581059105FC
:1049500021F464E279ED8BE597E02DE133EF41E05E
:1049600050E00E94122549015A019B01AC01A7EABF
:10497000B1E40E9431256B017C01ACEEB4EFA501DE
:1049800094010E943F25C60ED71EE81EF91EF7FEB1
:1049900006C081E0C81AD108E10880E8F80AC09290
:1049A0001501D0921601E0921701F0921801C7018B
:1049B000B6019F77FF90EF90DF90CF90BF90AF90C0
:1049C0009F908F90089560931501709316018093C6
:1049D0001701909318010895FC0188279927E894FE
:1049E00021912032E9F3293010F02E30C8F32B3218
:1049F00041F02D3239F4689404C00E940A25820FD8
:104A0000911D219120532A30C0F31EF49095819579
:104A10009F4F08957AE0979F902D879F802D910D4D
:104A200011240895052E97FB1EF400940E94292559
:104A300057FD07D00E94442507FC03D04EF40C9488
:104A4000292550954095309521953F4F4F4F5F4F09
:104A5000089590958095709561957F4F8F4F9F4FEA
:104A600008950E946625A59F900DB49F900DA49F68
:104A7000800D911D11240895B7FF0C9431250E94DB
:104A80003125821B930B0895A1E21A2EAA1BBB1B92
:104A9000FD010DC0AA1FBB1FEE1FFF1FA217B3070A
:104AA000E407F50720F0A21BB30BE40BF50B661F20
:104AB000771F881F991F1A9469F7609570958095E4
:104AC00090959B01AC01BD01CF010895A29FB0015B
:104AD000B39FC001A39F700D811D1124911DB29F32
:104AE000700D811D1124911D08955058BB27AA27D0
:104AF0000E948D250C9400270E94F22638F00E9417
:104B0000F92620F039F49F3F19F426F40C94EF268F
:104B10000EF4E095E7FB0C94E926E92F0E9411279B
:104B200058F3BA17620773078407950720F079F4E2
:104B3000A6F50C9433270EF4E0950B2EBA2FA02D7A
:104B40000B01B90190010C01CA01A0011124FF273A
:104B5000591B99F0593F50F4503E68F11A16F04035
:104B6000A22F232F342F4427585FF3CF4695379534
:104B70002795A795F0405395C9F77EF41F16BA0BF9
:104B8000620B730B840BBAF09150A1F0FF0FBB1FA7
:104B9000661F771F881FC2F70EC0BA0F621F731FF0
:104BA000841F48F4879577956795B795F7959E3F4D
:104BB00008F0B0CF9395880F08F09927EE0F9795DE
:104BC000879508950E94C52608F481E008950E9403
:104BD000FB250C9400270E94F92658F00E94F2262B
:104BE00040F029F45F3F29F00C94E92651110C9410
:104BF00034270C94EF260E94112768F39923B1F310
:104C0000552391F3951B550BBB27AA2762177307F2
:104C1000840738F09F5F5F4F220F331F441FAA1F86
:104C2000A9F335D00E2E3AF0E0E832D09150504042
:104C3000E695001CCAF72BD0FE2F29D0660F771FF0
:104C4000881FBB1F261737074807AB07B0E809F0D6
:104C5000BB0B802DBF01FF2793585F4F3AF09E3F5B
:104C6000510578F00C94E9260C9434275F3FE4F367
:104C7000983ED4F3869577956795B795F7959F5F9E
:104C8000C9F7880F911D9695879597F90895E1E0EA
:104C9000660F771F881FBB1F621773078407BA0749
:104CA00020F0621B730B840BBA0BEE1F88F7E095A4
:104CB00008950E94192788F09F5798F0B92F9927D7
:104CC000B751B0F0E1F0660F771F881F991F1AF0F7
:104CD000BA95C9F714C0B13091F00E943327B1E002
:104CE00008950C943327672F782F8827B85F39F001
:104CF000B93FCCF3869577956795B395D9F73EF490
:104D000090958095709561957F4F8F4F9F4F089537
:104D1000E89409C097FB3EF4909580957095619555
:104D20007F4F8F4F9F4F9923A9F0F92F96E9BB270B
:104D30009395F695879577956795B795F111F8CF87
:104D4000FAF4BB0F11F460FF1BC06F5F7F4F8F4FF2
:104D50009F4F16C0882311F096E911C0772321F0E8
:104D60009EE8872F762F05C0662371F096E8862F80
:104D700070E060E02AF09A95660F771F881FDAF7D7
:104D8000880F9695879597F90895990F0008550F04
:104D9000AA0BE0E8FEEF16161706E807F907C0F0C1
:104DA00012161306E407F50798F0621B730B840BC9
:104DB000950B39F40A2661F0232B242B252B21F4A3
:104DC00008950A2609F4A140A6958FEF811D811D43
:104DD000089597F99F6780E870E060E008959FEF7D
:104DE00080EC089500240A94161617061806090682
:104DF000089500240A941216130614060506089551
:104E0000092E0394000C11F4882352F0BB0F40F4D8
:104E1000BF2B11F460FF04C06F5F7F4F8F4F9F4F18
:104E2000089557FD9058440F551F59F05F3F71F09A
:104E30004795880F97FB991F61F09F3F79F0879501
:104E40000895121613061406551FF2CF4695F1DF8A
:104E500008C0161617061806991FF1CF869571051A
:104E6000610508940895E894BB2766277727CB014E
:104E700097F908950E94C52608F48FEF08950E94BF
:104E800052270C9400270E94F22638F00E94F9263F
:104E900020F0952311F00C94E9260C94EF261124B0
:104EA0000C9434270E94112770F3959FC1F3950F3E
:104EB00050E0551F629FF001729FBB27F00DB11D9E
:104EC000639FAA27F00DB11DAA1F649F6627B00D2E
:104ED000A11D661F829F2227B00DA11D621F739F17
:104EE000B00DA11D621F839FA00D611D221F749F25
:104EF0003327A00D611D231F849F600D211D822F6C
:104F0000762F6A2F11249F5750409AF0F1F0882392
:104F10004AF0EE0FFF1FBB1F661F771F881F9150BF
:104F20005040A9F79E3F510580F00C94E9260C945F
:104F300034275F3FE4F3983ED4F3869577956795E1
:104F4000B795F795E7959F5FC1F7FE2B880F911DE9
:104F50009695879597F908950E94C526880B990B19
:104F60000895DB018F939F930E943125BF91AF91EC
:104F7000A29F800D911DA39F900DB29F900D1124B3
:104F8000089597FB072E16F4009407D077FD09D0FB
:104F90000E94E22707FC05D03EF4909581959F4F33
:104FA0000895709561957F4F0895EE0FFF1F05904E
:104FB000F491E02D09946927962769277827872798
:104FC00078270895AA1BBB1B51E107C0AA1FBB1F6E
:104FD000A617B70710F0A61BB70B881F991F5A9585
:104FE000A9F780959095BC01CD010895FB01DC01E6
:104FF00004C08D910190801921F441505040C8F7B0
:10500000881B990B0895DC0101C06D9341505040FD
:10501000E0F70895FB01DC0101900D920020E1F71B
:10502000089510E0C2E6D0E004C0FE010E94D5273A
:0C5030002196C336D107C9F7F894FFCFD2
:10503C003139322E3136382E302E31300000C054FA
:10504C00EE75C2BA210100000001005E00000000F4
:10505C00000000C305910D580694009000850F0CBC
:10506C000A810C1C0B460702062B13BA076D10663F
:10507C000F510641063D063906000000005F02BFD5
:10508C0001EC01AC021D02FB010F0200000000CF7D
:10509C0003BF01580694002B044304B7030000001F
:1050AC0000E405CB0D880D730D8D0EAF0F1B0AFFA1
:1050BC000B9E13C90F81075F076E066B066906D935
:1050CC00055F06FC0F3210D20F5B06000000008457
:1050DC00146E616E00696E66006F76660057495AF1
:1050EC006E6574004661696C656420746F20636F33
:1050FC006E6669677572652045746865726E657455
:10510C00207573696E672044484350004750524DD8
:10511C00430047504747410041542B434D47463DC0
:10512C00310D00456D657267656E637921204372A0
:10513C006173682064657465637465640D0A004D61
:10514C007220526167686176004154202B20434DD8
:10515C004753203D20222B3931203930303030302C
:10516C0030303030220D0A004C61746974756465FE
:10517C00203D20002C204C6F6E676974756465208F
:10518C003D2000636F6E6E65637465640047455423
:10519C00202F74657374636F64652F6468742E704C
:1051AC0068703F6E616D653D00266D6F62696C6560
:1051BC003D00266C61743D00266C6F6E3D004854BA
:1051CC0054502F312E3100486F73743A20313932DC
:1051DC002E3136382E302E313000436F6E6E6563B3
:0C51EC0074696F6E3A20636C6F7365008D
:00000001FF
